:100000003BC07CC153C052C051C050C04FC04EC055
:100010004DC04CC04BC04AC049C048C047C046C094
:1000200045C044C043C00902120001010080190903
:10003000040000000000000012010101FF000008A0
:10004000C016DC050101010200010E03550053003A
:1000500042006100730070001C0377007700770096
:100060002E00660069007300630068006C002E00BB
:10007000640065000403090411241FBECFE5D4E029
:10008000DEBFCDBF10E0A0E6B0E0E0E3FDE002C0DF
:1000900005900D92A236B107D9F710E0A2E6B0E0C4
:1000A00001C01D92A23AB107E1F726C6A9CF1F935E
:1000B000CF93DF9360919C00662359F1635067FDF5
:1000C0006CC0C2E6D0E0C0919600CF5F20E010E89F
:1000D000809199008D3209F465C08091780087FD88
:1000E00009C0CE016AD52FEF821709F49FC0811194
:1000F00020E010E010937800922F2093610010927E
:100100009C009F3F51F486B3837089F1109279006F
:10011000E3C0909161009F3FB1F38091600084FF44
:10012000F2CF692F9930B8F5961B909361001BE4CC
:100130008091780080FD13EC8F5F80937800ACE8AD
:10014000B0E087FD60C0662309F058C060E070E051
:10015000C62F693008F446C02EE18FEF809361000E
:1001600010938B002093600086B3837079F68091A2
:100170007900882309F0B0C094E686B3837009F053
:10018000ABC09150D1F781E08093790090939D00AE
:1001900090939800A1C068E0C7CF90916100109241
:1001A0009C00AFCF683009F0A5CF8881807609F038
:1001B00056C044E950E0209394008981882309F0D7
:1001C00041C02093950022E050939B0040939A00F9
:1001D0008F81882309F08ECF8E81821708F08ACF15
:1001E000282F88CF8CE890E02CD22C2F2C5FC830A1
:1001F00008F0B6CF9FEF90936100B2CFCD01A0D4AD
:10020000682F7727A5CFE0919A00F0919B0086FF99
:1002100012C0962F03C084918D9331969150D8F7D8
:10022000F0939B00E0939A00772792CF8EE1809322
:10023000600010E05FCF962F02C081918D939150A6
:10024000E0F7EECF8530B9F08630C9F0883039F16B
:10025000893049F18A3009F0BBCF21E0B5CFCE011A
:1002600086D3282F8F3F09F0B3CF888187FF41CFF6
:100270002E8110E03FCF8A8180939D00A9CF10ECA2
:100280008B818130A1F08230B1F0833009F0A0CFB2
:100290008A818823A1F444E750E024E095CF4FE918
:1002A00050E021E091CF8A8180939F0091CF48E375
:1002B00050E022E189CF46E250E022E185CF813053
:1002C00039F0823009F084CF4AE450E02EE07CCF50
:1002D00048E550E02CE178CFDF91CF911F91089550
:1002E00082E690E0809397000B968093960085B706
:1002F000836085BF8BB780648BBF08950F930FB762
:100300000F93B09BFECFB09B06C0B09B04C0B09BC8
:1003100002C0000000C01F933F932F9331E012E012
:1003200006B3102710FD32E0102F3A95C9F700FDF3
:10033000E3C006B3102720E010FB20F9DF9316B3CB
:10034000012700FB21F9CF93C091970006B3102736
:1003500010FB22F93BE0D0E04F9316B3012700FBDE
:1003600023F94FEF000055C0B09BFECFB09B06C0F5
:10037000B09B04C0B09B02C0000000C0DF9100C071
:10038000CDCF16B3137079F14F7D206213C006B341
:10039000037049F14F7B206415C0037021F1102FC9
:1003A000206806B319C006B30370E9F04E7F2160E0
:1003B00018C039F306B30370B1F0102710FB26F90B
:1003C000223028F316B3012700FB27F9422749936F
:1003D0004FEF06B3243008F3102710FB20F9297FD4
:1003E00011F316B31370E1F1012700FB21F9237F0C
:1003F000F1F006B30370A1F1102710FB22F9277E5C
:10040000E1F016B3012700FB23F93A9541F12F7C67
:10041000D1F006B3037021F1102710FB24F92F79D6
:10042000C1F016B3012700FB25F92F73C2CF16B315
:100430001370B1F04D7F2260DCCF06B3037081F002
:100440004B7F2460DECF16B3137051F0477F2860D6
:10045000E0CF06B3037021F04F7E2061E2CF3BC0B6
:100460003C2FC09197003C1B00E433300ABF98F149
:1004700008811981412F1F77209198000D3279F161
:10048000013E69F10936C1F00777033421F5109177
:100490009E00112301F100919C000030C1F5343021
:1004A000C2F130939C001093990000919600C09384
:1004B0009600009397002DC0121769F430916000E8
:1004C00034FD23C00AE500936000CBE8D0E025C0EE
:1004D000002700939E004F91CF91DF910DC012171E
:1004E000B9F700939E000AE5009360004F91CF9109
:1004F0000AB706FD39CFDF9100E40ABF2F913F9183
:100500001F910F910FBF0F911895432F03C04AE51C
:1005100001C042EDC4E1D0E032E05F9353E0C09A05
:1005200008B3B89AB99A20E80FC0052710E008BBB5
:1005300010C0052710E0089408BB13C0052710E081
:1005400015C0052710E019C020FF052708BB279517
:1005500017951C3F50F720FF0527279508BB1795D7
:100560001C3F38F720FF05272795179508BB1C3F30
:1005700028F720FF0527279517951C3F08BB08F78C
:1005800000C0499120FF052708BB279517951C3F00
:1005900080F520FF0527279508BB17951C3F68F5B8
:1005A00020FF05272795179508BB1C3F58F520FF0E
:1005B0000527279517951C3F08BB38F5242F3A953A
:1005C00019F60C7F5F9108BB32E03A95F1F7109174
:1005D0009D00C651D04011F010939800016017B3F0
:1005E0001C7F08BB0C7F4F91CF9117BB08BBDF91DD
:1005F00083CF052710E008BBCACF052710E0089479
:1006000008BBCDCF052710E0CFCF052710E0D3CF13
:10061000A82FB92F8FEF9FEF41E050EA615070F0A3
:100620002D9138E0722F782796958795269570FF43
:1006300002C0842795273A95A9F7F0CF8095909529
:100640000895E6DF8D939D93089582E58DB981E04D
:100650008EB90895882339F48BE593E09093A10037
:100660008093A000089588E793E09093A100809381
:10067000A000089592B782B7891B8C30E0F30895EB
:1006800087B38C6287BBC298C598F4DFC29AF2DF49
:10069000C2988091A0009091A1008857934009F0E2
:1006A0000895D3DF089587B3837D87BB88B3837DA7
:1006B00088BB1DB808950F931F93CF93C82F00E0F8
:1006C00017E00CC0C398CC0F000FB4990F5FC59A08
:1006D000D1DFC598CFDF115017FD04C0C7FFF2CF9F
:1006E000C39AF1CF802F9927CF911F910F91089531
:1006F0008FB9779BFECF8FB1992708951F93CF9322
:10070000CFE103C0C150CF3F51F1E091A000F09183
:10071000A1008CEA0995E091A000F091A10083E589
:100720000995E091A000F091A10080E00995182FB3
:10073000E091A000F091A10080E00995133591F0BF
:100740001DB8C59A97DFC59895DF8091A00090915C
:10075000A10088579340B1F678DFC150B0F681E030
:1007600090E002C080E090E0CF911F9108950F9338
:100770001F938C018170880F880F880FE091A00073
:10078000F091A10080620995C801892F992786956B
:10079000E091A000F091A100099516950795E091D0
:1007A000A000F091A100802F0995E091A000F091A8
:1007B000A10080E0099599271F910F9108950F934B
:1007C0001F93CF93DF93EC01062F142F8170880FB6
:1007D000880F880FE091A000F091A1008064099536
:1007E000CE01892F99278695E091A000F091A10074
:1007F0000995CE0196958795E091A000F091A10012
:100800000995E091A000F091A100802F0995112396
:10081000A9F00F3789F01EE102B7CE01A8DF8F37AC
:1008200069F482B7801B8D3310F002B71150112389
:10083000A1F781E090E004C08FE08CD080E090E0F0
:10084000DF91CF911F910F9108950F931F93CF9335
:10085000DF93EC01162FE091A000F091A1008CE451
:100860000995CE01892F99278695E091A000F091F6
:10087000A1000995CE0196958795E091A000F09191
:10088000A1000995E091A000F091A10080E00995F8
:100890001F3F89F01EE102B7CE0169DF8F3F69F487
:1008A00082B7801B8D3310F002B711501123A1F7CE
:1008B00081E090E004C08FE04DD080E090E0DF91D7
:1008C000CF911F910F9108950F931F938C01E09189
:1008D000A000F091A10080EA0995812F9927E0916D
:1008E000A000F091A1000995E091A000F091A10075
:1008F000802F0995E091A000F091A10080E009957A
:1009000099271F910F910895FF920F931F938C01C8
:10091000F62EE091A000F091A10080EC0995812FC6
:100920009927E091A000F091A1000995E091A00025
:10093000F091A100802F0995E091A000F091A10015
:100940008F2D09958EE106D080E090E01F910F91E8
:10095000FF900895382F20E0231740F492B782B714
:10096000891B8C33E0F32F5F2317C0F308951F9387
:10097000CF93DF93EC0110E089818130A1F08230C8
:1009800009F489C0833009F489C0843091F087303C
:1009900009F467C0853009F4C3C0863039F1883066
:1009A00009F0C2C09DC09A9B812F54DE69DEA998D0
:1009B000BBC08B819927982F88272A813327822BC8
:1009C000932B90938600809385008F819927982F91
:1009D00088272E813327822B932B90937B00809343
:1009E0007A0082E080937C001FEF9EC08B81992764
:1009F000982F88272A813327822B932B9093860068
:100A0000809385008C81482F552750938800409310
:100A100087002D812F70209389008D819927807FF9
:100A2000907082959295907F9827807F9827840F69
:100A3000951F909388008093870020FF04C08091C9
:100A4000870080938A008F819927982F88272E818D
:100A50003327822B932B90937B0080937A0081E045
:100A6000C1CF8B819927982F88272A813327822B02
:100A7000932B90938600809385008F819927982FE0
:100A800088272E813327822B932B90937B00809392
:100A90007A0083E0A7CF07DEA99A46C0E091A000C4
:100AA000F091A1008A81099580937D00E091A000DA
:100AB000F091A1008B81099580937E00E091A000C8
:100AC000F091A1008C81099580937F00E091A000B6
:100AD000F091A1008D8109958093800014E024C0DD
:100AE0008B819927982F88272A813327822B932B54
:100AF0009093860080938500109288001092870062
:100B0000109389008F819927982F88272E8133276A
:100B1000822B932B90937B0080937A0084E062CFAA
:100B2000EDDD80937D0011E08DE790E090939B00D8
:100B300080939A00812F9927DF91CF911F9108957B
:100B4000EF92FF921F93CF937C01162F90917C0020
:100B5000892F8250823050F5C0E0C617C0F01FC008
:100B60008091850090918600AFDEF701EC0FF11DBA
:100B700080838091850090918600019690938600F5
:100B800080938500CF5FC11750F490917C00923024
:100B900039F78091850090918600E9DDE6CF183025
:100BA00010F410927C00812F992702C08FEF90E003
:100BB000CF911F91FF90EF900895BF92CF92DF9257
:100BC000EF92FF920F931F93CF93DF936C01E62E6A
:100BD000BB2440917C00413019F0443009F080C0C2
:100BE000FF24FE1408F079C0413009F049C080911B
:100BF000870090918800892B09F04EC0CF2DDD270A
:100C0000F601EC0FFD1F60818091850090918600B8
:100C1000D6DD80917A0090917B00019790937B00C4
:100C200080937A00892BD9F410927C0080918900FE
:100C300081FF13C080918A00282F3327809187007D
:100C4000909188002817390741F0CC0DDD1D68818F
:100C50008091850090918600F8DDC1E0BC2E8091E6
:100C60008500909186000196909386008093850080
:100C7000F394FE1490F540917C00413009F4B7CF15
:100C8000CF2DDD27F601EC0FFD1F608180918500DF
:100C90009091860039DEBDCFCF2DDD2786010C0F68
:100CA0001D1F40E0F80160818091850090918600D1
:100CB00086DD80918A00815080938A00882309F024
:100CC000A8CFF80160818091850090918600BDDDFC
:100CD0008091870080938A009CCF8B2D992702C03A
:100CE0008FEF90E0DF91CF911F910F91FF90EF90E8
:100CF000DF90CF90BF900895CFE5D4E0DEBFCDBFA9
:100D000012BA18BA8BEF81BB8FEF87BB90E091507E
:100D1000F1F78150D9F787BB93E094BB8EEF85BB89
:100D200093BF81E097DCDCDA7894C1D9C0D9FDCFDC
:020D30005AFF68
:00000001FF
