:1000000042C083C15AC059C058C057C056C055C01D
:1000100054C053C052C051C050C04FC04EC04DC05C
:100020004CC04BC04AC049C048C047C046C045C08C
:1000300044C043C0090212000101008019090400F4
:1000400000000000000012010101FF000008C016BE
:10005000DC050101010200010E03550053004200BE
:100060006100730070001C037700770077002E009A
:10007000660069007300630068006C002E00640075
:1000800065000403090411241FBECFEFD2E0DEBFD8
:10009000CDBF11E0A0E0B1E0E0E4FDE002C00590DA
:1000A0000D92A230B107D9F711E0A2E0B1E001C092
:1000B0001D92A234B107E1F727C6A2CF1F93CF93B9
:1000C000DF9360913C01662359F1635067FD6CC07A
:1000D000C2E0D1E0C0913601CF5F20E010E880910E
:1000E00039018D3209F465C08091180187FD09C07E
:1000F000CE016BD52FEF821709F49FC0811120E04C
:1001000010E010931801922F2093010110923C01EE
:100110009F3F51F483B1837089F110921901E3C0BC
:10012000909101019F3FB1F38091000184FFF2CFD4
:10013000692F9930B8F5961B909301011BE48091CB
:10014000180180FD13EC8F5F80931801ACE2B1E0E1
:1001500087FD60C0662309F058C060E070E0C62FDC
:10016000693008F446C02EE18FEF809301011093AF
:100170002B012093000183B1837079F680911901DE
:10018000882309F0B0C094E683B1837009F0ABC056
:100190009150D1F781E08093190190933D019093A4
:1001A0003801A1C068E0C7CF9091010110923C01D5
:1001B000AFCF683009F0A5CF8881807609F056C0AE
:1001C00044E351E0209334018981882309F041C040
:1001D0002093350122E050933B0140933A018F81F7
:1001E000882309F08ECF8E81821708F08ACF282FBE
:1001F00088CF8CE291E02CD22C2F2C5FC83008F0F5
:10020000B6CF9FEF90930101B2CFCD01A1D4682F5B
:100210007727A5CFE0913A01F0913B0186FF12C00C
:10022000962F03C084918D9331969150D8F7F09317
:100230003B01E0933A01772792CF8EE18093000152
:1002400010E05FCF962F02C081918D939150E0F71F
:10025000EECF8530B9F08630C9F0883039F1893079
:1002600049F18A3009F0BBCF21E0B5CFCE0187D369
:10027000282F8F3F09F0B3CF888187FF41CF2E8190
:1002800010E03FCF8A8180933D01A9CF10EC8B8194
:100290008130A1F08230B1F0833009F0A0CF8A81A3
:1002A0008823A1F442E850E024E095CF4FE351E0E9
:1002B00021E091CF8A8180933F0191CF46E450E0C5
:1002C00022E189CF44E350E022E185CF813039F04B
:1002D000823009F084CF48E550E02EE07CCF46E63E
:1002E00050E02CE178CFDF91CF911F91089582E00B
:1002F00091E0809337010B968093360180916900DD
:10030000836080936900E89A08950F930FB70F9365
:10031000189BFECF189B06C0189B04C0189B02C0F8
:10032000000000C01F933F932F9331E012E003B110
:10033000102710FD32E0102F3A95C9F700FDE3C0F9
:1003400003B1102720E010FB20F9DF9313B1012740
:1003500000FB21F9CF93C091370103B1102710FBA7
:1003600022F93BE0D1E04F9313B1012700FB23F9C1
:100370004FEF000055C0189BFECF189B06C0189B7E
:1003800004C0189B02C0000000C0DF9100C0CDCFA8
:1003900013B1137079F14F7D206213C003B1037064
:1003A00049F14F7B206415C0037021F1102F2068A4
:1003B00003B119C003B10370E9F04E7F216018C08A
:1003C00039F303B10370B1F0102710FB26F9223086
:1003D00028F313B1012700FB27F9422749934FEF78
:1003E00003B1243008F3102710FB20F9297F11F303
:1003F00013B11370E1F1012700FB21F9237FF1F024
:1004000003B10370A1F1102710FB22F9277EE1F060
:1004100013B1012700FB23F93A9541F12F7CD1F06C
:1004200003B1037021F1102710FB24F92F79C1F0DB
:1004300013B1012700FB25F92F73C2CF13B113703D
:10044000B1F04D7F2260DCCF03B1037081F04B7FB0
:100450002460DECF13B1137051F0477F2860E0CFE6
:1004600003B1037021F04F7E2061E2CF3BC03C2FEF
:10047000C09137013C1B01E033300CBB98F108817F
:100480001981412F1F77209138010D3279F1013EFA
:1004900069F10936C1F00777033421F510913E0167
:1004A000112301F100913C010030C1F53430C2F15B
:1004B00030933C011093390100913601C09336010D
:1004C000009337012DC0121769F43091000134FDFB
:1004D00023C00AE500930001CBE2D1E025C000274C
:1004E00000933E014F91CF91DF910DC01217B9F7E4
:1004F00000933E010AE5009300014F91CF910CB3A8
:1005000000FD39CFDF9101E00CBB2F913F911F918E
:100510000F910FBF0F911895432F03C04AE501C0FB
:1005200042EDC4E1D0E032E05F9353E0289A05B198
:10053000209A219A20E80FC0052710E005B910C0C5
:10054000052710E0089405B913C0052710E015C071
:10055000052710E019C020FF052705B92795179535
:100560001C3F50F720FF0527279505B917951C3F1D
:1005700038F720FF05272795179505B91C3F28F761
:1005800020FF0527279517951C3F05B908F700C0E0
:10059000499120FF052705B9279517951C3F80F540
:1005A00020FF0527279505B917951C3F68F520FF03
:1005B00005272795179505B91C3F58F520FF0527F6
:1005C000279517951C3F05B938F5242F3A9519F64C
:1005D0000C7F5F9105B932E03A95F1F710913D013A
:1005E000C651D04011F010933801016014B11C7F46
:1005F00005B90C7F4F91CF9114B905B9DF9183CF25
:10060000052710E005B9CACF052710E0089405B901
:10061000CDCF052710E0CFCF052710E0D3CFA82FEF
:10062000B92F8FEF9FEF41E050EA615070F02D91AC
:1006300038E0722F782796958795269570FF02C02F
:10064000842795273A95A9F7F0CF8095909508953E
:10065000E6DF8D939D93089582E58CBD81E08DBD8D
:100660000895882339F482E693E0909341018093C2
:10067000400108958FE793E09093410180934001FA
:10068000089596B586B5891B8C30E0F3089584B142
:100690008C6284B92A982D98F4DF2A9AF2DF2A987E
:1006A00080914001909141018F57934009F0089546
:1006B000D3DF089584B1837D84B985B1837D85B905
:1006C0001CBC08950F931F93CF93C82F00E017E031
:1006D0000CC02B98CC0F000F1C990F5F2D9AD1DF07
:1006E0002D98CFDF115017FD04C0C7FFF2CF2B9A12
:1006F000F1CF802F9927CF911F910F9108958EBD33
:100700000DB407FEFDCF8EB5992708951F93CF93A3
:10071000CFE103C0C150CF3F51F1E0914001F091D2
:1007200041018CEA0995E0914001F091410183E596
:100730000995E0914001F091410180E00995182F61
:10074000E0914001F091410180E00995133591F06D
:100750001CBC2D9A96DF2D9894DF809140019091DA
:1007600041018F579340B1F677DFC150B0F681E079
:1007700090E002C080E090E0CF911F9108950F9328
:100780001F938C018170880F880F880FE0914001C2
:10079000F091410180620995C801892F99278695BA
:1007A000E0914001F0914101099516950795E0917E
:1007B0004001F0914101802F0995E0914001F091B5
:1007C000410180E0099599271F910F9108950F939A
:1007D0001F93CF93DF93EC01062F142F8170880FA6
:1007E000880F880FE0914001F091410180640995E4
:1007F000CE01892F99278695E0914001F091410122
:100800000995CE0196958795E0914001F0914101BF
:100810000995E0914001F0914101802F0995112344
:10082000A9F00F3789F01EE106B5CE01A8DF8F379A
:1008300069F486B5801B8D3310F006B51150112375
:10084000A1F781E090E004C08FE08CD080E090E0E0
:10085000DF91CF911F910F9108950F931F93CF9325
:10086000DF93EC01162FE0914001F09141018CE4FF
:100870000995CE01892F99278695E0914001F09145
:1008800041010995CE0196958795E0914001F0913F
:1008900041010995E0914001F091410180E0099505
:1008A0001F3F89F01EE106B5CE0169DF8F3F69F475
:1008B00086B5801B8D3310F006B511501123A1F7BA
:1008C00081E090E004C08FE04DD080E090E0DF91C7
:1008D000CF911F910F9108950F931F938C01E09179
:1008E0004001F091410180EA0995812F9927E0911B
:1008F0004001F09141010995E0914001F0914101E1
:10090000802F0995E0914001F091410180E0099527
:1009100099271F910F910895FF920F931F938C01B8
:10092000F62EE0914001F091410180EC0995812F74
:100930009927E0914001F09141010995E091400132
:10094000F0914101802F0995E0914001F091410122
:100950008F2D09958EE106D080E090E01F910F91D8
:10096000FF900895382F20E0231740F496B586B500
:10097000891B8C33E0F32F5F2317C0F308951F9377
:10098000CF93DF93EC0110E089818130A1F08230B8
:1009900009F489C0833009F489C0843091F087302C
:1009A00009F467C0853009F4C3C0863039F1883056
:1009B00009F0C2C09DC0329B812F53DE68DE419892
:1009C000BBC08B819927982F88272A813327822BB8
:1009D000932B90932601809325018F819927982F3F
:1009E00088272E813327822B932B90931B01809392
:1009F0001A0182E080931C011FEF9EC08B81992712
:100A0000982F88272A813327822B932B90932601B6
:100A1000809325018C81482F5527509328014093BE
:100A200027012D812F70209329018D819927807FA7
:100A3000907082959295907F9827807F9827840F59
:100A4000951F909328018093270120FF04C0809177
:100A5000270180932A018F819927982F88272E813B
:100A60003327822B932B90931B0180931A0181E0F3
:100A7000C1CF8B819927982F88272A813327822BF2
:100A8000932B90932601809325018F819927982F8E
:100A900088272E813327822B932B90931B018093E1
:100AA0001A0183E0A7CF06DE419A46C0E0914001DB
:100AB000F09141018A81099580931D01E0914001E7
:100AC000F09141018B81099580931E01E0914001D5
:100AD000F09141018C81099580931F01E0914001C3
:100AE000F09141018D8109958093200114E024C08B
:100AF0008B819927982F88272A813327822B932B44
:100B000090932601809325011092280110922701CD
:100B1000109329018F819927982F88272E813327B9
:100B2000822B932B90931B0180931A0184E062CF58
:100B3000EDDD80931D0111E08DE191E090933B018B
:100B400080933A01812F9927DF91CF911F910895CA
:100B5000EF92FF921F93CF937C01162F90911C016F
:100B6000892F8250823050F5C0E0C617C0F01FC0F8
:100B70008091250190912601AFDEF701EC0FF11D68
:100B80008083809125019091260101969093260102
:100B900080932501CF5FC11750F490911C019230D2
:100BA00039F78091250190912601E9DDE6CF1830D3
:100BB00010F410921C01812F992702C08FEF90E052
:100BC000CF911F91FF90EF900895BF92CF92DF9247
:100BD000EF92FF920F931F93CF93DF936C01E62E5A
:100BE000BB2440911C01413019F0443009F080C011
:100BF000FF24FE1408F079C0413009F049C080910B
:100C0000270190912801892B09F04EC0CF2DDD27B7
:100C1000F601EC0FFD1F6081809125019091260166
:100C2000D6DD80911A0190911B01019790931B01D1
:100C300080931A01892BD9F410921C01809129010B
:100C400081FF13C080912A01282F3327809127012B
:100C5000909128012817390741F0CC0DDD1D6881DE
:100C60008091250190912601F8DDC1E0BC2E809194
:100C700025019091260101969093260180932501EC
:100C8000F394FE1490F540911C01413009F4B7CF64
:100C9000CF2DDD27F601EC0FFD1F6081809125012E
:100CA0009091260139DEBDCFCF2DDD2786010C0FB7
:100CB0001D1F40E0F801608180912501909126017F
:100CC00086DD80912A01815080932A01882309F0D2
:100CD000A8CFF80160818091250190912601BDDDAA
:100CE0008091270180932A019CCF8B2D992702C0E8
:100CF0008FEF90E0DF91CF911F910F91FF90EF90D8
:100D0000DF90CF90BF900895CFEFD2E0DEBFCDBF90
:100D10001BB815B88BEF8AB98FEF84B990E091506A
:100D2000F1F78150D9F784B993E097B98EEF88B97C
:100D300095BD81E096DCDBDA7894C0D9BFD9FDCFD0
:020D40005AFF58
:00000001FF
