:100000003BC072C153C052C051C050C04FC04EC05F
:100010004DC04CC04BC04AC049C048C047C046C094
:1000200045C044C043C00E03550053004200610068
:10003000730070001C037700770077002E006600C5
:1000400069007300630068006C002E0064006500A6
:1000500004030904090212000101008019090400C7
:1000600000000000000012010101FF000008EB0386
:10007000B4C700010102000111241FBECFE5D4E086
:10008000DEBFCDBF10E0A0E6B0E0EEEEFCE002C0C7
:1000900005900D92A436B107D9F710E0A4E6B0E0C0
:1000A00001C01D92A33AB107E1F70CC6A9CF1F9377
:1000B000CF93FC0180919C008D3269F080917A0091
:1000C00087FD04C0CF0166D58F3F71F010926300A9
:1000D00010927A0066C0C0E010E8683061F0C0930A
:1000E000630010937A005DC08EE180938E0082E001
:1000F0008093620056C080818076F9F427E930E071
:10010000C093970081818823A1F08530E9F0863083
:10011000F9F0883061F18A3071F130939E002093BC
:100120009D0087818823D9F686818C17C0F6C82F59
:10013000D6CFC0939800C2E0F0CFC681CF0104D4DF
:100140008F3FA9F710E0CBCF828180937B00E5CF72
:1001500010EC8381813089F0823099F08330E9F6A8
:100160008281882391F4C4E020E530E0D6CFC1E05D
:10017000C0939700D2CFC1E0D0CFC2E126E630E0F5
:10018000CCCFC2E124E530E0C8CF813031F08230FD
:1001900021F6CEE026E230E0C0CFCCE124E330E02F
:1001A000BCCFCF911F910895CF9360919F0066239C
:1001B00051F0635067FD05C080919A009927019620
:1001C00076DF10929F008091620087FD1AC086B38F
:1001D000837019F010927C0077C080917C00882396
:1001E00009F072C094E686B3837009F06DC0915037
:1001F000D1F781E080937C009093990090937B00ED
:1002000063C0809163008F3F31F12BE490917A00BD
:1002100090FD23EC9F5F90937A0020938E00682FCF
:10022000893008F068E0861B80936300AFE8B0E097
:1002300097FD30C0662349F560E070E0C62F693055
:10024000A0F08EE180938E0092E08FEF80936300A8
:1002500090936200BCCF80917B00882309F4B7CFD4
:100260008093990010927B00B2CF8FE890E0C1D1CB
:10027000EC2FFF27E257FF4F818392839C2F9C5FD7
:10028000C83018F390936200A2CFCD0146D4682FF6
:100290007727D4CFE0919D00F0919E0096FF0DC08E
:1002A000962F03C084918D9331969150D8F7F09397
:1002B0009E00E0939D007727C1CF962F02C08191C9
:1002C0008D939150E0F7F3CFCF91089584E690E0BD
:1002D00080939B000B9680939A0085B7836085BFBF
:1002E0008BB780648BBF08950F930FB70F93B09BAC
:1002F000FECFB09B06C0B09B04C0B09B02C0000004
:1003000000C01F933F932F9331E012E006B31027F4
:1003100010FD32E0102F3A95C9F700FDE4C006B396
:10032000102717952FE72795DF9316B30127079519
:100330002795CF93C0919B0006B31027179527955B
:100340003BE0DD274F9316B30127079527954FEF25
:10035000000055C0B09BFECFB09B06C0B09B04C050
:10036000B09B02C0000000C0DF9100C0CDCF16B32B
:10037000137079F1407C2C6F13C006B3037049F100
:1003800041782C6F15C0037021F1102F2C6F06B32C
:1003900019C006B30370E9F04E7F2C6F18C038F314
:1003A00006B30370B1F0102717952795243028F372
:1003B00016B3012707952795422749934FEF06B3B8
:1003C000243008F3102717952795243010F316B31F
:1003D0001370E1F10127079527952430F0F006B35B
:1003E0000370A1F11027179527952430E0F016B37C
:1003F0000127079527953A9541F12430D0F006B3AF
:10040000037021F11027179527952430C0F016B3FB
:100410000127079527952430C2CF16B31370B1F08A
:100420004C7F2C6FDCCF06B3037081F0487F2C6FBC
:10043000DECF16B3137051F0407F2C6FE0CF06B3C0
:10044000037021F0407E2C6FE2CF3AC03C2FC09168
:100450009B003C1B00E433300ABF90F108811981F6
:10046000412F1F77209199000D3271F1013E61F10A
:100470000936B9F0033C11F00B3411F51091A000CE
:100480001123F1F000919F000030B1F530939F00EF
:1004900010939C0000919A00C0939A0000939B00D7
:1004A0002EC0121769F4309162003F3F29F10FEF1F
:1004B00000936200CEE8D0E025C000270093A000A2
:1004C0004F91CF91DF910FC01217B9F70093A000A1
:1004D0000FEF00936300009362004F91CF910AB732
:1004E00006FD38CFDF9100E40ABF2F913F911F91A5
:1004F0000F910FBF0F911895C0E6D0E002C0C1E682
:10050000D0E032E05F9308B30C7F016008BB53E09A
:1005100017B3136017BB20E80FC0052710E008BB16
:1005200010C0052710E0089408BB13C0052710E091
:1005300015C0052710E019C020FF052708BB279527
:1005400017951C3F50F720FF0527279508BB1795E7
:100550001C3F38F720FF05272795179508BB1C3F40
:1005600028F720FF0527279517951C3F08BB08F79C
:1005700000C0499120FF052708BB279517951C3F10
:1005800048F520FF0527279508BB17951C3F30F538
:1005900020FF05272795179508BB1C3F20F520FF56
:1005A0000527279517951C3F08BB00F5242F3A9582
:1005B00019F60C7F5F9108BB34E03A95F1F70160C2
:1005C00017B31C7F08BB0C7F4F91CF9117BB08BBA3
:1005D000DF9189CF052710E008BBD1CF052710E0B8
:1005E000089408BBD4CF052710E0D6CF052710E02C
:1005F000DACFA82FB92F8FEF9FEF41E050EA61507B
:1006000070F02D9138E0722F782796958795269572
:1006100070FF02C0842795273A95A9F7F0CF8095FF
:100620009095089582E58DB981E08EB9089588236B
:1006300039F488E493E09093A2008093A100089598
:1006400085E693E09093A2008093A100089592B76D
:1006500082B7891B8C30E0F3089587B38C6287BB27
:10066000C298C598F4DFC29AF2DFC2988091A100C7
:100670009091A2008556934009F00895D3DF089524
:1006800087B3837D87BB88B3837D88BB1DB80895FE
:100690000F931F93CF93C82F00E017E00CC0C398AF
:1006A000CC0F000FB4990F5FC59AD1DFC598CFDF8B
:1006B000115017FD04C0C7FFF2CFC39AF1CF802FAE
:1006C0009927CF911F910F9108958FB9779BFECFF6
:1006D0008FB1992708951F93CF93CFE103C0C150E5
:1006E000CF3F51F1E091A100F091A2008CEA099571
:1006F000E091A100F091A20083E50995E091A100AD
:10070000F091A20080E00995182FE091A100F091EE
:10071000A20080E00995133591F01DB8C59A97DFC6
:10072000C59895DF8091A1009091A20085569340D5
:10073000B1F678DFC150B0F681E090E002C080E011
:1007400090E0CF911F9108950F931F938C018170BA
:10075000880F880F880FE091A100F091A2008062BD
:100760000995C801892F99278695E091A100F091FC
:10077000A200099516950795E091A100F091A200BD
:10078000802F0995E091A100F091A20080E00995E9
:1007900099271F910F9108950F931F93CF93DF9384
:1007A000EC01062F142F8170880F880F880FE091BD
:1007B000A100F091A20080640995CE01892F9927AC
:1007C0008695E091A100F091A2000995CE01969541
:1007D0008795E091A100F091A2000995E091A10018
:1007E000F091A200802F09951123A9F00F3789F00D
:1007F0001EE102B7CE01A8DF8F3769F482B7801BF4
:100800008D3310F002B711501123A1F781E090E071
:1008100004C08FE08CD080E090E0DF91CF911F91F9
:100820000F9108950F931F93CF93DF93EC01162F31
:10083000E091A100F091A2008CE40995CE01892FEE
:1008400099278695E091A100F091A2000995CE012B
:1008500096958795E091A100F091A2000995E0910D
:10086000A100F091A20080E009951F3F89F01EE1F0
:1008700002B7CE0169DF8F3F69F482B7801B8D33E9
:1008800010F002B711501123A1F781E090E004C0ED
:100890008FE04DD080E090E0DF91CF911F910F91DC
:1008A00008950F931F938C01E091A100F091A20095
:1008B00080EA0995812F9927E091A100F091A2008B
:1008C0000995E091A100F091A200802F0995E09197
:1008D000A100F091A20080E0099599271F910F9146
:1008E0000895FF920F931F938C01F62EE091A100C3
:1008F000F091A20080EC0995812F9927E091A10049
:10090000F091A2000995E091A100F091A200802F42
:100910000995E091A100F091A2008F2D09958EE13B
:1009200006D080E090E01F910F91FF900895382F3E
:1009300020E0231740F492B782B7891B8C33E0F391
:100940002F5F2317C0F308951F93CF93DF93EC011C
:1009500010E089818130A1F0823009F489C08330B0
:1009600009F489C0843091F0873009F467C085307C
:1009700009F4C3C0863039F1883009F0C2C09DC087
:100980009A9B812F54DE69DEA998BBC08B81992781
:10099000982F88272A813327822B932B90938900C5
:1009A000809388008F819927982F88272E8133275D
:1009B000822B932B90937E0080937D0082E0809326
:1009C0007F001FEF9EC08B819927982F88272A814F
:1009D0003327822B932B90938900809388008C81FE
:1009E000482F552750938B0040938A002D812F70FC
:1009F00020938C008D819927807F907082959295AD
:100A0000907F9827807F9827840F951F90938B0065
:100A100080938A0020FF04C080918A0080938D001B
:100A20008F819927982F88272E813327822B932B0C
:100A300090937E0080937D0081E0C1CF8B819927C8
:100A4000982F88272A813327822B932B9093890014
:100A5000809388008F819927982F88272E813327AC
:100A6000822B932B90937E0080937D0083E0A7CF11
:100A700007DEA99A46C0E091A100F091A2008A8108
:100A8000099580938000E091A100F091A2008B81F4
:100A9000099580938100E091A100F091A2008C81E2
:100AA000099580938200E091A100F091A2008D81D0
:100AB00009958093830014E024C08B819927982F97
:100AC00088272A813327822B932B90938900809348
:100AD000880010928B0010928A0010938C008F81F6
:100AE0009927982F88272E813327822B932B909339
:100AF0007E0080937D0084E062CFEDDD80938000F6
:100B000011E080E890E090939E0080939D00812FFB
:100B10009927DF91CF911F910895EF92FF921F9334
:100B2000CF937C01162F90917F00892F82508230C5
:100B300050F5C0E0C617C0F01FC0809188009091AA
:100B40008900AFDEF701EC0FF11D808380918800F2
:100B50009091890001969093890080938800CF5FDF
:100B6000C11750F490917F00923039F7809188003E
:100B700090918900E9DDE6CF183010F410927F00E3
:100B8000812F992702C08FEF90E0CF911F91FF90A6
:100B9000EF900895CF92DF92EF92FF920F931F9301
:100BA000CF93DF936C01062F40917F00413019F005
:100BB000443009F07CC010E0101708F445C074C040
:100BC00080918A0090918B00892B09F04CC0C12F35
:100BD000DD27FE01EC0DFD1D608180918800909164
:100BE0008900DADD80917D0090917E0001979093DD
:100BF0007E0080937D00892BC9F410927F00809144
:100C00008C0081FF13C080918D00282F33278091A5
:100C10008A0090918B002817390741F0CC0DDD1D1B
:100C200068818091880090918900FCDD8091880026
:100C300090918900019690938900809388001F5FAE
:100C4000101790F540917F00413009F4B9CFC12FC2
:100C5000DD27FE01EC0DFD1D6081809188009091E3
:100C600089003FDEBFCFC12FDD277E01EC0CFD1CCC
:100C700040E0F701608180918800909189008CDDCF
:100C800080918D00815080938D00882309F0AACF38
:100C9000F70160818091880090918900C3DD809187
:100CA0008A0080938D009ECF80E090E002C08FEF9D
:100CB00090E0DF91CF911F910F91FF90EF90DF9027
:100CC000CF900895CFE5D4E0DEBFCDBF12BA18BAF9
:100CD0008BEF81BB17BA93E094BB8EEF85BB93BFBC
:0E0CE00081E0A5DCF3DA78945FDA5EDAFDCF0E
:040CEE005AD2FFFFD8
:00000001FF
